{
  "contractName": "FileContract",
  "abi": [
    {
      "inputs": [],
      "payable": false,
      "stateMutability": "nonpayable",
      "type": "constructor"
    },
    {
      "constant": false,
      "inputs": [
        {
          "name": "fileHash",
          "type": "bytes32"
        },
        {
          "name": "fileName",
          "type": "bytes32"
        }
      ],
      "name": "addFile",
      "outputs": [],
      "payable": false,
      "stateMutability": "nonpayable",
      "type": "function"
    },
    {
      "constant": true,
      "inputs": [
        {
          "name": "fileName",
          "type": "bytes32"
        }
      ],
      "name": "getFile",
      "outputs": [
        {
          "name": "",
          "type": "bytes32"
        }
      ],
      "payable": false,
      "stateMutability": "view",
      "type": "function"
    },
    {
      "constant": true,
      "inputs": [],
      "name": "getAllFiles",
      "outputs": [
        {
          "name": "",
          "type": "bytes32[]"
        }
      ],
      "payable": false,
      "stateMutability": "view",
      "type": "function"
    }
  ],
  "bytecode": "0x6060604052341561000f57600080fd5b60008054600160a060020a033316600160a060020a03199091161790556103308061003b6000396000f3006060604052600436106100565763ffffffff7c0100000000000000000000000000000000000000000000000000000000600035041663473aa2a5811461005b5780634f25669314610083578063ff24b5d51461009e575b600080fd5b341561006657600080fd5b610071600435610104565b60405190815260200160405180910390f35b341561008e57600080fd5b61009c600435602435610137565b005b34156100a957600080fd5b6100b16101c0565b60405160208082528190810183818151815260200191508051906020019060200280838360005b838110156100f05780820151838201526020016100d8565b505050509050019250505060405180910390f35b3373ffffffffffffffffffffffffffffffffffffffff166000908152600160209081526040808320938352929052205490565b73ffffffffffffffffffffffffffffffffffffffff33166000818152600160208181526040808420868552825280842087905593835260029052919020805490918101610184838261029a565b91600052602060002090600202016000604080519081016040528481526020810186905291905081518155602082015160019091015550505050565b6101c86102cb565b60006101d26102cb565b73ffffffffffffffffffffffffffffffffffffffff3316600090815260026020526040808220549350819084905180591061020a5750595b90808252806020026020018201604052509250600091505b838210156102915773ffffffffffffffffffffffffffffffffffffffff3316600090815260026020526040902080548390811061025b57fe5b90600052602060002090600202019050806000015483838151811061027c57fe5b60209081029091010152600190910190610222565b50909392505050565b8154818355818115116102c6576002028160020283600052602060002091820191016102c691906102dd565b505050565b60206040519081016040526000815290565b61030191905b808211156102fd57600080825560018201556002016102e3565b5090565b905600a165627a7a723058204aaa25532145ce9986581f56128cc702e5114ae000e4c9423f4058286ac25fa00029",
  "source": "pragma solidity ^0.4.21;\n\ncontract FileContract {\n    address private owner;\n    mapping(address => mapping(bytes32 => bytes32)) private Files;   \n    mapping(address => File[]) private fileList;   \n\n    struct File {\n        bytes32 name;\n        bytes32 hash;\n    }\n\n    function FileContract() public {\n        owner = msg.sender;\n    }\n\n    function addFile(bytes32 fileHash, bytes32 fileName) public {\n        Files[msg.sender][fileName] = fileHash;\n        fileList[msg.sender].push(File(fileName, fileHash));\n    }\n\n    function getFile(bytes32 fileName) public view returns(bytes32) {\n        return Files[msg.sender][fileName];\n    }\n    \n    function getAllFiles() public view returns(bytes32[]) {\n        uint count = fileList[msg.sender].length;\n        bytes32[] memory names = new bytes32[](count);\n        for (uint i = 0; i < count; i++) {\n            File storage file = fileList[msg.sender][i];\n            names[i] = file.name;\n        }\n        return names;\n    }\n}",
  "sourcePath": "D:\\ipfs\\infura\\contracts\\FileContract.sol",
  "compiler": {
    "name": "solc",
    "version": "0.4.21+commit.dfe3193c.Emscripten.clang"
  },
  "schemaVersion": "2.0.0",
  "updatedAt": "2018-11-25T17:23:38.835Z"
}